:100000000C9434000C943E000C943E000C943E0082
:100010000C943E000C943E000C943E000C943E0068
:100020000C943E000C943E000C943E000C943E0058
:100030000C943E000C943E000C943E000C943E0048
:100040000C943E000C943E000C943E000C943E0038
:100050000C943E000C943E000C943E000C943E0028
:100060000C943E000C943E0011241FBECFEFD8E04C
:10007000DEBFCDBF0E9440000C941C010C94000018
:10008000CF93DF930E945F000E9481000E94AB002B
:10009000C0E9D1E00E946500813071F480E00E94E7
:1000A0008C0020ED37E0FE013197F1F72150304010
:1000B000D1F70E94BA00EECF0E940E01EBCF209A3A
:1000C0005098589A5198599A089548990EC049994C
:1000D0000CC0289A80ED97E020E931E0F9013197D2
:1000E000F1F70197D9F781E00895289880ED97E01E
:1000F00020E931E0F9013197F1F70197D9F780E074
:100100000895ECE7F0E0808180648083EAE7F0E026
:10011000808187688083089590917C00987F909378
:100120007C0090917C008770892B80937C0080916B
:100130007A00806480937A0080917A0084FFFCCFFB
:1001400080917A00806180937A00209178003091CC
:100150007900C9010895E0E8F0E080818368808338
:10016000E1E8F0E080818860808380818360808323
:10017000219A08959C01893C910580F48CEC90E0D3
:10018000909389008093880080ED97E020E931E02A
:10019000F9013197F1F70197D9F70895895C9040FB
:1001A0008C52914080F489E991E09093890080938A
:1001B000880080ED97E020E931E0F9013197F1F70F
:1001C0000197D9F70895C901855F9140883C910551
:1001D00080F48CEC92E0909389008093880080ED0D
:1001E00097E020E931E0F9013197F1F70197D9F76C
:1001F00008952D5B32402454314078F48CEC93E028
:10020000909389008093880080ED97E020E931E0A9
:10021000F9013197F1F70197D9F708951092890004
:100220001092880080ED97E020E931E0F9013197E4
:0C023000F1F70197D9F70895F894FFCF7B
:00000001FF
